:100000000EC0BFC01CC0DCC01AC019C018C017C0C9
:1000100016C015C014C013C012C011C010C01124E6
:100020001FBECFE5D2E0DEBFCDBF20E0A0E6B0E04E
:1000300001C01D92A236B207E1F7F8D08EC1E0CF21
:10004000CF93DF93CDB7DEB729970FB6F894DEBF15
:100050000FBECDBF8AE490E0FC01108288E390E0FF
:1000600028E330E0F901308122E02327FC012083DE
:1000700019825BC088E390E028E330E0F901308129
:1000800022E02327FC0120831A821B821C821D820E
:1000900014C088E390E028E330E0F9012081227069
:1000A000FC0120838A819B81AC81BD810196A11DC9
:1000B000B11D8A839B83AC83BD838A819B81AC8184
:1000C000BD8180319742A105B1051CF388E390E022
:1000D00028E330E0F901308122E02327FC0120836E
:1000E0001E821F821886198614C088E390E028E3D8
:1000F00030E0F90120812270FC0120838E819F81F4
:10010000A885B9850196A11DB11D8E839F83A887FF
:10011000B9878E819F81A885B98580319742A105D5
:10012000B1051CF389818F5F89838981833008F44D
:10013000A1CF8AE490E023EFFC0120830000299600
:100140000FB6F894DEBF0FBECDBFDF91CF910895FB
:10015000CF93DF931F92CDB7DEB7898389818C3F20
:1001600030F088E490E02FEFFC01208305C088E4A4
:1001700090E02981FC01208300000F90DF91CF9156
:1001800008951F920F9200905F000F9211248F9399
:100190009F93CF93DF93CDB7DEB7F8949091610032
:1001A00081E089278093610078940000DF91CF91EE
:1001B0009F918F910F9000925F000F901F90189564
:1001C0001F920F9200905F000F9211242F933F9384
:1001D0004F935F936F937F938F939F93AF93BF934F
:1001E000EF93FF93CF93DF93CDB7DEB788E490E032
:1001F000FC011082F89480916100813009F420DFC5
:1002000078940000DF91CF91FF91EF91BF91AF9172
:100210009F918F917F916F915F914F913F912F911E
:100220000F9000925F000F901F901895CF93DF936F
:10023000CDB7DEB78FE590E02FE530E0F901208102
:100240002068FC01208387E390E027E330E0F90198
:1002500020812260FC01208387E290E027E230E0E9
:10026000F90120812062FC01208387E290E027E2EF
:1002700030E0F90120812260FC01208384E390E0DA
:1002800020E1FC01208383E290E0FC01108286E201
:1002900090E026E230E0F90120812068FC01208313
:1002A00086E290E026E230E0F90120812064FC0142
:1002B000208386E290E026E230E0F901208120628E
:1002C000FC0120838AE490E023EFFC01208383E596
:1002D00090E023E530E0F90120812160FC012083DA
:1002E0008EE490E024EFFC01208380E590E02FE88D
:1002F000FC01208389E590E029E530E0F9012081C7
:100300002064FC0120838BE590E02BE530E0F901CF
:1003100020812064FC01208385E590E025E530E024
:10032000F90120812260FC01208385E590E025E52C
:1003300030E0F90120812160FC01208378948091D4
:1003400061008823E1F785E290E0FC0180818093E1
:0E035000600080916000FCDEF2CFF894FFCFD9
:00000001FF
