:100000000EC01DC01CC01BC01AC019C018C017C02C
:1000100016C015C014C013C012C011C010C01124E6
:100020001FBECFE5D2E0DEBFCDBF20E0A0E6B0E04E
:1000300001C01D92A236B207E1F785D1EFC1E0CF32
:10004000CF93DF93CDB7DEB766970FB6F894DEBFD8
:100050000FBECDBF19825BC088E390E028E330E09B
:10006000F901308122E02327FC0120831B821C82BE
:100070001D821E8214C088E390E028E330E0F9017D
:1000800020812270FC0120838B819C81AD81BE8107
:100090000196A11DB11D8B839C83AD83BE838B8193
:1000A0009C81AD81BE8180319742A105B1051CF3D1
:1000B00088E390E028E330E0F901308122E0232753
:1000C000FC0120831F82188619861A8614C088E3D3
:1000D00090E028E330E0F90120812270FC012083C8
:1000E0008F819885A985BA850196A11DB11D8F8341
:1000F0009887A987BA878F819885A985BA85803125
:100100009742A105B1051CF389818F5F898389819D
:10011000833008F4A1CF86E290E0FC018081882F33
:1001200090E080749927892B09F483C01B861C8674
:100130001D861E8614C088E390E028E330E0F901B4
:1001400020812270FC0120838B859C85AD85BE8536
:100150000196A11DB11D8B879C87AD87BE878B85BE
:100160009C85AD85BE85803A9648A140B1051CF3BB
:100170001A825BC088E390E028E330E0F901308127
:1001800022E02327FC0120831F86188A198A1A8AF5
:1001900014C088E390E028E330E0F9012081227068
:1001A000FC0120838F859889A989BA890196A11DB0
:1001B000B11D8F87988BA98BBA8B8F859889A98958
:1001C000BA8980319742A105B1051CF388E390E01C
:1001D00028E330E0F901308122E02327FC0120836D
:1001E0001B8A1C8A1D8A1E8A14C088E390E028E3BB
:1001F00030E0F90120812270FC0120838B899C89E9
:10020000AD89BE890196A11DB11D8B8B9C8BAD8BD9
:10021000BE8B8B899C89AD89BE8980319742A105AF
:10022000B1051CF38A818F5F8A838A81833008F449
:10023000A1CF000066960FB6F894DEBF0FBECDBF0B
:10024000DF91CF910895CF93DF93CDB7DEB72A9793
:100250000FB6F894DEBF0FBECDBF9A87898788E3BB
:1002600090E028E330E0F901308122E02327FC010F
:10027000208319821A821B821C8214C088E390E0BA
:1002800028E330E0F90120812270FC01208389817C
:100290009A81AB81BC810196A11DB11D89839A838E
:1002A000AB83BC832FEF33E089859A85A901481B76
:1002B000590BCA019C01990F440B550B89819A81F6
:1002C000AB81BC8182179307A407B507BCF288E312
:1002D00090E028E330E0F901308122E02327FC019F
:1002E00020831D821E821F82188614C088E390E03E
:1002F00028E330E0F90120812270FC0120838D8108
:100300009E81AF81B8850196A11DB11D8D839E830D
:10031000AF83B88789859A859C01990F440B550B4B
:100320008D819E81AF81B88582179307A407B50799
:10033000ECF200002A960FB6F894DEBF0FBECDBFD8
:10034000DF91CF910895CF93DF93CDB7DEB787E3E9
:1003500090E027E330E0F90120812260FC01208356
:1003600087E290E027E230E0F90120812260FC0181
:10037000208384E390E020E1FC01208383E290E08D
:10038000FC01108286E290E026E230E0F901208153
:100390002068FC01208386E290E026E230E0F9014B
:1003A00020812064FC01208386E290E026E230E098
:1003B000F90120812062FC01208328C084E290E0C2
:1003C000FC018081882F90E0909361008093600011
:1003D00085E290E0FC018081882F90E0382F222771
:1003E0008091600090916100822B932B909361002B
:1003F000809360008091600090916100181619064A
:100400002CF480916000909161001DDF86E390E004
:10041000FC018081883091F613DECFCFF894FFCFB6
:00000001FF
