:100000000EC015C014C013C012C011C010C00FC064
:100010000EC00DC00CC00BC00AC009C008C011241E
:100020001FBECFE5D2E0DEBFCDBF02D065C0E8CFB6
:10003000CF93DF93CDB7DEB787E390E027E330E0DF
:10004000F90120812260FC01208387E290E027E211
:1000500030E0F90120812260FC01208384E390E0FC
:1000600020E1FC01208383E290E0FC01108286E223
:1000700090E026E230E0F90120812068FC01208335
:1000800086E290E026E230E0F90120812064FC0164
:10009000208386E290E026E230E0F90120812062B0
:1000A000FC0120838AE490E02AE430E0F901208119
:1000B0002067FC0120838AE490E02AE430E0F90123
:1000C00020812B60FC01208383E590E023E530E074
:1000D000F90120812860FC01208383E590E023E57D
:1000E00030E0F90120812566FC01208388E490E05E
:0C00F0002FE7FC012083FFCFF894FFCF26
:00000001FF
