:100000000EC049C01CC07EC01AC019C018C017C09D
:1000100016C015C014C013C012C011C010C01124E6
:100020001FBECFE5D2E0DEBFCDBF20E0A0E6B0E04E
:1000300001C01D92A236B207E1F794D021C1E0CFF2
:10004000CF93DF93CDB7DEB788E390E028E330E0CD
:10005000F901308122E02327FC0120830000DF9199
:10006000CF910895CF93DF931F92CDB7DEB78983E9
:1000700089818C3F30F088E490E02FEFFC012083F1
:1000800005C088E490E02981FC01208300000F90E6
:10009000DF91CF9108951F920F9200905F000F9211
:1000A00011242F938F939F93EF93FF93CF93DF931D
:1000B000CDB7DEB7F8949091610081E089278093F5
:1000C000610080916100813029F48AE490E0FC01B4
:1000D000108209C080916100882329F48AE490E0AD
:1000E00023EFFC01208378940000DF91CF91FF91F2
:1000F000EF919F918F912F910F9000925F000F9041
:100100001F9018951F920F9200905F000F9211247C
:100110002F933F934F935F936F937F938F939F930F
:10012000AF93BF93EF93FF93CF93DF93CDB7DEB73A
:1001300080916100813009F483DF0000DF91CF916D
:10014000FF91EF91BF91AF919F918F917F916F91AF
:100150005F914F913F912F910F9000925F000F9010
:100160001F901895CF93DF93CDB7DEB787E390E06C
:1001700027E330E0F90120812260FC01208387E23F
:1001800090E027E230E0F90120812062FC01208329
:1001900087E290E027E230E0F90120812260FC0153
:1001A000208384E390E020E1FC01208383E290E05F
:1001B000FC01108286E290E026E230E0F901208125
:1001C0002068FC01208386E290E026E230E0F9011D
:1001D00020812064FC01208386E290E026E230E06A
:1001E000F90120812062FC0120838AE490E023EF62
:1001F000FC01208383E590E023E530E0F9012081D4
:100200002160FC0120838EE490E024EFFC01208338
:1002100080E590E02FE8FC01208389E590E029E566
:1002200030E0F90120812064FC0120838BE590E01F
:100230002BE530E0F90120812064FC01208385E575
:1002400090E025E530E0F90120812260FC01208367
:1002500085E590E025E530E0F90120812160FC0191
:1002600020837894809161008823E1F785E290E013
:10027000FC0180818093600080916000F3DEF2CF0A
:04028000F894FFCF20
:00000001FF
